:1000000061C0000084C0000082C0000080C0000009
:100010007EC000007CC000007AC0000078C00000F4
:1000200076C0000074C0000072C0000070C0000004
:100030006EC000006CC000006AC0000068C0000014
:10004000F0C2000064C00000ECC100001CC200004F
:100050005EC000005CC000005AC0000058C0000034
:1000600056C0000054C0000000000008000201005B
:100070000003040700000000000000000102040863
:100080001020408001020408102001020408102002
:10009000040404040404040402020202020203032E
:1000A00003030303000000002300260029000000D2
:1000B0000000250028002B0000000000240027007D
:1000C0002A00710211241FBECFEFD8E0DEBFCDBFE2
:1000D00011E0A0E0B1E0E6E2F9E002C005900D9287
:1000E000A037B107D9F722E0A0E7B1E001C01D9227
:1000F000A631B207E1F710E0C4ECD0E003C02297CC
:10010000FE010BD4C23CD107D1F781D20AC478CF0B
:10011000CF93DF9326E040E855E260E070E080E7AF
:1001200091E01FD160E083E072D362E071E080E78C
:1001300091E058D2C0E0D0E080910001909101019F
:10014000C817D90764F466E171E080E791E04AD20C
:1001500068EE73E080E090E0D1D22196EDCF68E1C7
:1001600071E080E791E042D26EE171E080E791E0DA
:100170003DD262E370E080E090E0DF91CF91BEC2BB
:1001800083E07ED3019719F46CE271E002C06EE364
:1001900071E080E791E02AD268EE73E080E090E0C1
:1001A000ADC2FC01818D228D90E0805C9F4F821B4F
:1001B00091098F7399270895FC01918D828D98176D
:1001C00031F0828DE80FF11D858D90E008958FEF5D
:1001D0009FEF0895FC01918D828D981761F0828DBB
:1001E000DF01A80FB11D5D968C91928D9F5F9F736B
:1001F000928F90E008958FEF9FEF089588E692E048
:10020000892B41F080E090E0892B21F061D18111B0
:100210000C9400000895FC01848DDF01A80FB11D2E
:10022000A35ABF4F2C91848D90E001968F7399272C
:10023000848FA689B7892C93A089B1898C91806419
:100240008C93938D848D981306C00288F389E02DDA
:1002500080818F7D80830895CF93DF93EC01888D1B
:100260008823C1F0EA89FB89808185FD05C0A889C2
:10027000B9898C9186FD0EC00FB607FCF5CF808141
:1002800085FFF2CFA889B9898C9185FFEDCFCE018A
:10029000C2DFE8CFDF91CF910895CF92DF92FF9236
:1002A0000F931F93CF93DF931F92CDB7DEB76C01EF
:1002B00081E0D60158968C9358975B969C915B97FA
:1002C0005C968C915C97981307C05096ED91FC91C9
:1002D0005197808185FD2DC0F601038D10E00F5FE1
:1002E0001F4F0F731127F02EF601848DF81210C0E6
:1002F0000FB607FCF9CFD6015096ED91FC915197BE
:10030000808185FFF1CFC601698385DF6981ECCFEC
:10031000838DE80FF11DE35AFF4F6083D6015B9692
:100320000C935B975296ED91FC915397808180627C
:100330000CC0D6015696ED91FC915797608350966C
:10034000ED91FC91519780818064808381E090E001
:100350000F90DF91CF911F910F91FF90DF90CF9081
:100360000895BF92CF92DF92EF92FF92CF93DF93E7
:10037000EC016A017B01B22EE889F98982E0808371
:10038000411581EE58076105710599F060E079E04B
:100390008DE390E0A70196019CD2215031094109DB
:1003A00051095695479537952795211580E13807CE
:1003B00090F0E889F989108260E874E88EE190E0B5
:1003C000A701960186D2215031094109510956955C
:1003D000479537952795EC85FD853083EE85FF851C
:1003E0002083188EEC89FD89B082EA89FB8980819F
:1003F00080618083EA89FB89808188608083EA89C3
:10040000FB89808180688083EA89FB8980818F7D78
:100410008083DF91CF91FF90EF90DF90CF90BF90DE
:1004200008951F920F920FB60F9211242F938F935E
:100430009F93EF93FF93E0918001F0918101808180
:10044000E0918601F091870182FD12C09081809138
:1004500089018F5F8F7320918A01821751F0E0919B
:100460008901F0E0E059FE4F958F8093890101C02A
:100470008081FF91EF919F918F912F910F900FBEEF
:100480000F901F9018951F920F920FB60F92112484
:100490002F933F934F935F936F937F938F939F938C
:1004A000AF93BF93EF93FF9380E791E0B4DEFF91AA
:1004B000EF91BF91AF919F918F917F916F915F91DC
:1004C0004F913F912F910F900FBE0F901F90189555
:1004D00080E791E066DE21E0892B09F420E0822F9D
:1004E0000895109273011092720188EE93E0A0E0DB
:1004F000B0E08093740190937501A0937601B0935E
:10050000770184E591E0909371018093700185EC0F
:1005100090E090937D0180937C0184EC90E0909337
:100520007F0180937E0180EC90E090938101809325
:10053000800181EC90E0909383018093820182ECB2
:1005400090E0909385018093840186EC90E09093F5
:100550008701809386011092890110928A0110927E
:100560008B0110928C010895CF92DF92EF92FF924F
:100570000F931F93CF93DF937C016A01EB0100E09F
:1005800010E00C151D0571F06991D701ED91FC91FA
:100590000190F081E02DC7010995892B19F00F5FBB
:1005A0001F4FEFCFC801DF91CF911F910F91FF90A7
:1005B000EF90DF90CF9008956115710581F0DB0118
:1005C0000D900020E9F7AD0141505109461B570B32
:1005D000DC01ED91FC910280F381E02D099480E033
:1005E00090E00895E9CF60E671E0E6CF0F931F93A6
:1005F000CF93DF93EC01E0DF8C01CE01F4DF800FBD
:10060000911FDF91CF911F910F91089508959BD075
:10061000FDDF7EDDCEEFD0E0B3DD2097E9F3EEDD48
:10062000FBCF1F920F920FB60F9211242F933F937F
:100630008F939F93AF93BF9380910E0290910F027F
:10064000A0911002B091110230910D0223E0230F0E
:100650002D3720F40196A11DB11D05C026E8230FFA
:100660000296A11DB11D20930D0280930E0290935E
:100670000F02A0931002B093110280911202909188
:100680001302A0911402B09115020196A11DB11D93
:100690008093120290931302A0931402B093150258
:1006A000BF91AF919F918F913F912F910F900FBE6E
:1006B0000F901F9018953FB7F89480911202909177
:1006C0001302A0911402B091150226B5A89B05C093
:1006D0002F3F19F00196A11DB11D3FBF6627782F4E
:1006E000892F9A2F620F711D811D911D42E0660FA7
:1006F000771F881F991F4A95D1F70895CF92DF92EF
:10070000EF92FF92CF93DF936B017C01D4DFEB017B
:10071000C114D104E104F10479F0DAD0CCDF6C1B10
:100720007D0B683E7340A0F381E0C81AD108E10850
:10073000F108C851DC4FECCFDF91CF91FF90EF90E3
:10074000DF90CF900895789484B5826084BD84B59D
:10075000816084BD85B5826085BD85B5816085BDBC
:10076000EEE6F0E0808181608083E1E8F0E01082D5
:10077000808182608083808181608083E0E8F0E016
:10078000808181608083E1EBF0E080818460808300
:10079000E0EBF0E0808181608083EAE7F0E0808137
:1007A0008460808380818260808380818160808397
:1007B0008081806880831092C1000895833081F029
:1007C00028F4813099F08230A1F008958730A9F0A3
:1007D0008830B9F08430D1F4809180008F7D03C0DF
:1007E000809180008F7780938000089584B58F7703
:1007F00002C084B58F7D84BD08958091B0008F774D
:1008000003C08091B0008F7D8093B0000895CF9396
:10081000DF9390E0FC01E458FF4F2491FC01E05786
:10082000FF4F8491882349F190E0880F991FFC01C4
:10083000E854FF4FA591B49182559F4FFC01C5919B
:10084000D4919FB7611108C0F8948C9120958223B0
:100850008C93888182230AC0623051F4F8948C9181
:10086000322F309583238C938881822B888304C018
:10087000F8948C91822B8C939FBFDF91CF91089538
:10088000CF93DF93282F30E0F901E859FF4F84918F
:10089000F901E458FF4FD491F901E057FF4FC4919B
:1008A000CC2389F081118ADFEC2FF0E0EE0FFF1FDF
:1008B000EC55FF4FA591B4912C912D2381E090E050
:1008C00021F480E002C080E090E0DF91CF910895B4
:1008D0000895A1E21A2EAA1BBB1BFD010DC0AA1F81
:1008E000BB1FEE1FFF1FA217B307E407F50720F099
:1008F000A21BB30BE40BF50B661F771F881F991F14
:100900001A9469F760957095809590959B01AC015C
:10091000BD01CF010895EE0FFF1F0590F491E02D6A
:060920000994F894FFCFDA
:100926001E0063616C6962726174696E672073652B
:100936006E736F7220002E0020646F6E6500534543
:100946004E534F5220414354495645005049522078
:10095600736564616E672074696E676769005049E4
:100966005220736564616E672072656E646168000B
:10097600000000004D01B402D100EA00DC002C01A9
:100986000D0A006E616E00696E66006F7666000085
:00000001FF
